{
  "contractName": "Voting",
  "abi": [
    {
      "anonymous": false,
      "inputs": [
        {
          "indexed": true,
          "internalType": "address",
          "name": "previousOwner",
          "type": "address"
        },
        {
          "indexed": true,
          "internalType": "address",
          "name": "newOwner",
          "type": "address"
        }
      ],
      "name": "OwnershipTransferred",
      "type": "event"
    },
    {
      "anonymous": false,
      "inputs": [
        {
          "indexed": false,
          "internalType": "uint256",
          "name": "proposalId",
          "type": "uint256"
        }
      ],
      "name": "ProposalRegistered",
      "type": "event"
    },
    {
      "anonymous": false,
      "inputs": [
        {
          "indexed": false,
          "internalType": "address",
          "name": "voter",
          "type": "address"
        },
        {
          "indexed": false,
          "internalType": "uint256",
          "name": "proposalId",
          "type": "uint256"
        }
      ],
      "name": "Voted",
      "type": "event"
    },
    {
      "anonymous": false,
      "inputs": [
        {
          "indexed": false,
          "internalType": "address",
          "name": "voterAddress",
          "type": "address"
        }
      ],
      "name": "VoterRegistered",
      "type": "event"
    },
    {
      "anonymous": false,
      "inputs": [
        {
          "indexed": false,
          "internalType": "enum Voting.WorkflowStatus",
          "name": "previousStatus",
          "type": "uint8"
        },
        {
          "indexed": false,
          "internalType": "enum Voting.WorkflowStatus",
          "name": "newStatus",
          "type": "uint8"
        }
      ],
      "name": "WorkflowStatusChange",
      "type": "event"
    },
    {
      "inputs": [],
      "name": "activeStatus",
      "outputs": [
        {
          "internalType": "enum Voting.WorkflowStatus",
          "name": "",
          "type": "uint8"
        }
      ],
      "stateMutability": "view",
      "type": "function",
      "constant": true
    },
    {
      "inputs": [],
      "name": "owner",
      "outputs": [
        {
          "internalType": "address",
          "name": "",
          "type": "address"
        }
      ],
      "stateMutability": "view",
      "type": "function",
      "constant": true
    },
    {
      "inputs": [
        {
          "internalType": "uint256",
          "name": "",
          "type": "uint256"
        }
      ],
      "name": "proposals",
      "outputs": [
        {
          "internalType": "string",
          "name": "description",
          "type": "string"
        },
        {
          "internalType": "uint256",
          "name": "voteCount",
          "type": "uint256"
        }
      ],
      "stateMutability": "view",
      "type": "function",
      "constant": true
    },
    {
      "inputs": [],
      "name": "renounceOwnership",
      "outputs": [],
      "stateMutability": "nonpayable",
      "type": "function"
    },
    {
      "inputs": [
        {
          "internalType": "address",
          "name": "newOwner",
          "type": "address"
        }
      ],
      "name": "transferOwnership",
      "outputs": [],
      "stateMutability": "nonpayable",
      "type": "function"
    },
    {
      "inputs": [
        {
          "internalType": "address",
          "name": "",
          "type": "address"
        }
      ],
      "name": "voters",
      "outputs": [
        {
          "internalType": "bool",
          "name": "isRegistered",
          "type": "bool"
        },
        {
          "internalType": "bool",
          "name": "hasVoted",
          "type": "bool"
        },
        {
          "internalType": "uint256",
          "name": "votedProposalId",
          "type": "uint256"
        }
      ],
      "stateMutability": "view",
      "type": "function",
      "constant": true
    },
    {
      "inputs": [],
      "name": "winningProposalId",
      "outputs": [
        {
          "internalType": "uint256",
          "name": "",
          "type": "uint256"
        }
      ],
      "stateMutability": "view",
      "type": "function",
      "constant": true
    },
    {
      "inputs": [
        {
          "internalType": "address",
          "name": "_voterAddress",
          "type": "address"
        }
      ],
      "name": "registerVoter",
      "outputs": [],
      "stateMutability": "nonpayable",
      "type": "function"
    },
    {
      "inputs": [],
      "name": "startProposalRegistration",
      "outputs": [],
      "stateMutability": "nonpayable",
      "type": "function"
    },
    {
      "inputs": [
        {
          "internalType": "string",
          "name": "_proposal",
          "type": "string"
        }
      ],
      "name": "registerProposal",
      "outputs": [],
      "stateMutability": "nonpayable",
      "type": "function"
    },
    {
      "inputs": [],
      "name": "stopProposalRegistration",
      "outputs": [],
      "stateMutability": "nonpayable",
      "type": "function"
    },
    {
      "inputs": [],
      "name": "startVotingSession",
      "outputs": [],
      "stateMutability": "nonpayable",
      "type": "function"
    },
    {
      "inputs": [
        {
          "internalType": "uint256",
          "name": "_proposalId",
          "type": "uint256"
        }
      ],
      "name": "voting",
      "outputs": [],
      "stateMutability": "nonpayable",
      "type": "function"
    },
    {
      "inputs": [],
      "name": "stopVotingSession",
      "outputs": [],
      "stateMutability": "nonpayable",
      "type": "function"
    },
    {
      "inputs": [],
      "name": "computeResult",
      "outputs": [],
      "stateMutability": "nonpayable",
      "type": "function"
    },
    {
      "inputs": [],
      "name": "getWinner",
      "outputs": [
        {
          "internalType": "string",
          "name": "description",
          "type": "string"
        },
        {
          "internalType": "uint256",
          "name": "voteCount",
          "type": "uint256"
        }
      ],
      "stateMutability": "view",
      "type": "function",
      "constant": true
    }
  ],
  "bytecode": "0x60806040523480156200001157600080fd5b5062000032620000266200003860201b60201c565b6200004060201b60201c565b62000104565b600033905090565b60008060009054906101000a900473ffffffffffffffffffffffffffffffffffffffff169050816000806101000a81548173ffffffffffffffffffffffffffffffffffffffff021916908373ffffffffffffffffffffffffffffffffffffffff1602179055508173ffffffffffffffffffffffffffffffffffffffff168173ffffffffffffffffffffffffffffffffffffffff167f8be0079c531659141344cd1fd0a4f28419497f9722a3daafe3b4186f6b6457e060405160405180910390a35050565b6124f580620001146000396000f3fe608060405234801561001057600080fd5b50600436106101005760003560e01c80638da5cb5b11610097578063c64963c511610066578063c64963c51461022d578063ee74c6781461024b578063f2fde38b14610255578063fd4a77f11461027157610100565b80638da5cb5b146101a05780638e7ea5b2146101be57806393458030146101dd578063a3ec138d146101fb57610100565b806338db6dd3116100d357806338db6dd3146101665780634abfba2b14610182578063715018a61461018c5780637cac97361461019657610100565b8063013cf08b146101055780630f7e28381461013657806317a0ad8e146101405780632f95355b1461014a575b600080fd5b61011f600480360381019061011a9190611827565b61028d565b60405161012d9291906118fc565b60405180910390f35b61013e610339565b005b610148610493565b005b610164600480360381019061015f9190611991565b6105ed565b005b610180600480360381019061017b9190611a3c565b610854565b005b61018a610abe565b005b610194610c18565b005b61019e610ca0565b005b6101a8610e89565b6040516101b59190611a78565b60405180910390f35b6101c6610eb2565b6040516101d49291906118fc565b60405180910390f35b6101e5610ff0565b6040516101f29190611b0a565b60405180910390f35b61021560048036038101906102109190611a3c565b611003565b60405161022493929190611b40565b60405180910390f35b610235611047565b6040516102429190611b77565b60405180910390f35b61025361104d565b005b61026f600480360381019061026a9190611a3c565b6111a6565b005b61028b60048036038101906102869190611827565b61129d565b005b60046020528060005260406000206000915090508060000180546102b090611bc1565b80601f01602080910402602001604051908101604052809291908181526020018280546102dc90611bc1565b80156103295780601f106102fe57610100808354040283529160200191610329565b820191906000526020600020905b81548152906001019060200180831161030c57829003601f168201915b5050505050908060010154905082565b610341611584565b73ffffffffffffffffffffffffffffffffffffffff1661035f610e89565b73ffffffffffffffffffffffffffffffffffffffff16146103b5576040517f08c379a00000000000000000000000000000000000000000000000000000000081526004016103ac90611c3e565b60405180910390fd5b600060058111156103c9576103c8611a93565b5b600360009054906101000a900460ff1660058111156103eb576103ea611a93565b5b1461042b576040517f08c379a000000000000000000000000000000000000000000000000000000000815260040161042290611cd0565b60405180910390fd5b6001600360006101000a81548160ff0219169083600581111561045157610450611a93565b5b02179055507f0a97a4ee45751e2abf3e4fc8946939630b11b371ea8ae39ccdc3056e98f5cc3f60006001604051610489929190611cf0565b60405180910390a1565b61049b611584565b73ffffffffffffffffffffffffffffffffffffffff166104b9610e89565b73ffffffffffffffffffffffffffffffffffffffff161461050f576040517f08c379a000000000000000000000000000000000000000000000000000000000815260040161050690611c3e565b60405180910390fd5b6003600581111561052357610522611a93565b5b600360009054906101000a900460ff16600581111561054557610544611a93565b5b14610585576040517f08c379a000000000000000000000000000000000000000000000000000000000815260040161057c90611d8b565b60405180910390fd5b6004600360006101000a81548160ff021916908360058111156105ab576105aa611a93565b5b02179055507f0a97a4ee45751e2abf3e4fc8946939630b11b371ea8ae39ccdc3056e98f5cc3f600360046040516105e3929190611cf0565b60405180910390a1565b600260003373ffffffffffffffffffffffffffffffffffffffff1673ffffffffffffffffffffffffffffffffffffffff16815260200190815260200160002060000160009054906101000a900460ff1661067c576040517f08c379a000000000000000000000000000000000000000000000000000000000815260040161067390611e1d565b60405180910390fd5b600160058111156106905761068f611a93565b5b600360009054906101000a900460ff1660058111156106b2576106b1611a93565b5b146106f2576040517f08c379a00000000000000000000000000000000000000000000000000000000081526004016106e990611eaf565b60405180910390fd5b6106fc828261158c565b61073b576040517f08c379a000000000000000000000000000000000000000000000000000000000815260040161073290611f1b565b60405180910390fd5b6005600081548092919061074e90611f6a565b9190505550604051806040016040528083838080601f016020809104026020016040519081016040528093929190818152602001838380828437600081840152601f19601f820116905080830192505050505050508152602001600081525060046000600554815260200190815260200160002060008201518160000190805190602001906107de929190611744565b5060208201518160010155905050600660055490806001815401808255809150506001900390600052602060002001600090919091909150557f92e393e9b54e2f801d3ea4beb0c5e71a21cc34a5d34b77d0fb8a3aa1650dc18f6005546040516108489190611b77565b60405180910390a15050565b61085c611584565b73ffffffffffffffffffffffffffffffffffffffff1661087a610e89565b73ffffffffffffffffffffffffffffffffffffffff16146108d0576040517f08c379a00000000000000000000000000000000000000000000000000000000081526004016108c790611c3e565b60405180910390fd5b600060058111156108e4576108e3611a93565b5b600360009054906101000a900460ff16600581111561090657610905611a93565b5b14610946576040517f08c379a000000000000000000000000000000000000000000000000000000000815260040161093d90611cd0565b60405180910390fd5b600260008273ffffffffffffffffffffffffffffffffffffffff1673ffffffffffffffffffffffffffffffffffffffff16815260200190815260200160002060000160009054906101000a900460ff16156109d6576040517f08c379a00000000000000000000000000000000000000000000000000000000081526004016109cd90611ffe565b60405180910390fd5b60405180606001604052806001151581526020016000151581526020016000815250600260008373ffffffffffffffffffffffffffffffffffffffff1673ffffffffffffffffffffffffffffffffffffffff16815260200190815260200160002060008201518160000160006101000a81548160ff02191690831515021790555060208201518160000160016101000a81548160ff021916908315150217905550604082015181600101559050507fb6be2187d059cc2a55fe29e0e503b566e1e0f8c8780096e185429350acffd3dd81604051610ab39190611a78565b60405180910390a150565b610ac6611584565b73ffffffffffffffffffffffffffffffffffffffff16610ae4610e89565b73ffffffffffffffffffffffffffffffffffffffff1614610b3a576040517f08c379a0000000000000000000000000000000000000000000000000000000008152600401610b3190611c3e565b60405180910390fd5b60016005811115610b4e57610b4d611a93565b5b600360009054906101000a900460ff166005811115610b7057610b6f611a93565b5b14610bb0576040517f08c379a0000000000000000000000000000000000000000000000000000000008152600401610ba790611eaf565b60405180910390fd5b6002600360006101000a81548160ff02191690836005811115610bd657610bd5611a93565b5b02179055507f0a97a4ee45751e2abf3e4fc8946939630b11b371ea8ae39ccdc3056e98f5cc3f60016002604051610c0e929190611cf0565b60405180910390a1565b610c20611584565b73ffffffffffffffffffffffffffffffffffffffff16610c3e610e89565b73ffffffffffffffffffffffffffffffffffffffff1614610c94576040517f08c379a0000000000000000000000000000000000000000000000000000000008152600401610c8b90611c3e565b60405180910390fd5b610c9e6000611652565b565b610ca8611584565b73ffffffffffffffffffffffffffffffffffffffff16610cc6610e89565b73ffffffffffffffffffffffffffffffffffffffff1614610d1c576040517f08c379a0000000000000000000000000000000000000000000000000000000008152600401610d1390611c3e565b60405180910390fd5b60046005811115610d3057610d2f611a93565b5b600360009054906101000a900460ff166005811115610d5257610d51611a93565b5b14610d92576040517f08c379a0000000000000000000000000000000000000000000000000000000008152600401610d8990612090565b60405180910390fd5b60005b600680549050811015610e20576001546004600060068481548110610dbd57610dbc6120b0565b5b906000526020600020015481526020019081526020016000206001015411610de757600154610e07565b60068181548110610dfb57610dfa6120b0565b5b90600052602060002001545b6001819055508080610e1890611f6a565b915050610d95565b506005600360006101000a81548160ff02191690836005811115610e4757610e46611a93565b5b02179055507f0a97a4ee45751e2abf3e4fc8946939630b11b371ea8ae39ccdc3056e98f5cc3f60046005604051610e7f929190611cf0565b60405180910390a1565b60008060009054906101000a900473ffffffffffffffffffffffffffffffffffffffff16905090565b60606000600580811115610ec957610ec8611a93565b5b600360009054906101000a900460ff166005811115610eeb57610eea611a93565b5b14610f2b576040517f08c379a0000000000000000000000000000000000000000000000000000000008152600401610f2290612151565b60405180910390fd5b60046000600154815260200190815260200160002060000160046000600154815260200190815260200160002060010154818054610f6890611bc1565b80601f0160208091040260200160405190810160405280929190818152602001828054610f9490611bc1565b8015610fe15780601f10610fb657610100808354040283529160200191610fe1565b820191906000526020600020905b815481529060010190602001808311610fc457829003601f168201915b50505050509150915091509091565b600360009054906101000a900460ff1681565b60026020528060005260406000206000915090508060000160009054906101000a900460ff16908060000160019054906101000a900460ff16908060010154905083565b60015481565b611055611584565b73ffffffffffffffffffffffffffffffffffffffff16611073610e89565b73ffffffffffffffffffffffffffffffffffffffff16146110c9576040517f08c379a00000000000000000000000000000000000000000000000000000000081526004016110c090611c3e565b60405180910390fd5b600260058111156110dd576110dc611a93565b5b600360009054906101000a900460ff1660058111156110ff576110fe611a93565b5b1461113f576040517f08c379a0000000000000000000000000000000000000000000000000000000008152600401611136906121e3565b60405180910390fd5b60038060006101000a81548160ff0219169083600581111561116457611163611a93565b5b02179055507f0a97a4ee45751e2abf3e4fc8946939630b11b371ea8ae39ccdc3056e98f5cc3f6002600360405161119c929190611cf0565b60405180910390a1565b6111ae611584565b73ffffffffffffffffffffffffffffffffffffffff166111cc610e89565b73ffffffffffffffffffffffffffffffffffffffff1614611222576040517f08c379a000000000000000000000000000000000000000000000000000000000815260040161121990611c3e565b60405180910390fd5b600073ffffffffffffffffffffffffffffffffffffffff168173ffffffffffffffffffffffffffffffffffffffff1603611291576040517f08c379a000000000000000000000000000000000000000000000000000000000815260040161128890612275565b60405180910390fd5b61129a81611652565b50565b600260003373ffffffffffffffffffffffffffffffffffffffff1673ffffffffffffffffffffffffffffffffffffffff16815260200190815260200160002060000160009054906101000a900460ff1661132c576040517f08c379a000000000000000000000000000000000000000000000000000000000815260040161132390611e1d565b60405180910390fd5b600360058111156113405761133f611a93565b5b600360009054906101000a900460ff16600581111561136257611361611a93565b5b146113a2576040517f08c379a000000000000000000000000000000000000000000000000000000000815260040161139990611d8b565b60405180910390fd5b600260003373ffffffffffffffffffffffffffffffffffffffff1673ffffffffffffffffffffffffffffffffffffffff16815260200190815260200160002060000160019054906101000a900460ff1615611432576040517f08c379a0000000000000000000000000000000000000000000000000000000008152600401611429906122e1565b60405180910390fd5b61143b81611716565b61147a576040517f08c379a000000000000000000000000000000000000000000000000000000000815260040161147190612373565b60405180910390fd5b80600260003373ffffffffffffffffffffffffffffffffffffffff1673ffffffffffffffffffffffffffffffffffffffff168152602001908152602001600020600101819055506001600260003373ffffffffffffffffffffffffffffffffffffffff1673ffffffffffffffffffffffffffffffffffffffff16815260200190815260200160002060000160016101000a81548160ff02191690831515021790555060046000828152602001908152602001600020600101600081548092919061154390611f6a565b91905055507f4d99b957a2bc29a30ebd96a7be8e68fe50a3c701db28a91436490b7d53870ca43382604051611579929190612393565b60405180910390a150565b600033905090565b600080600090505b6006805490508110156116465783836040516020016115b49291906123fb565b6040516020818303038152906040528051906020012060046000600684815481106115e2576115e16120b0565b5b9060005260206000200154815260200190815260200160002060000160405160200161160e91906124a8565b604051602081830303815290604052805190602001200361163357600091505061164c565b808061163e90611f6a565b915050611594565b50600190505b92915050565b60008060009054906101000a900473ffffffffffffffffffffffffffffffffffffffff169050816000806101000a81548173ffffffffffffffffffffffffffffffffffffffff021916908373ffffffffffffffffffffffffffffffffffffffff1602179055508173ffffffffffffffffffffffffffffffffffffffff168173ffffffffffffffffffffffffffffffffffffffff167f8be0079c531659141344cd1fd0a4f28419497f9722a3daafe3b4186f6b6457e060405160405180910390a35050565b60008060046000848152602001908152602001600020600001805461173a90611bc1565b9050119050919050565b82805461175090611bc1565b90600052602060002090601f01602090048101928261177257600085556117b9565b82601f1061178b57805160ff19168380011785556117b9565b828001600101855582156117b9579182015b828111156117b857825182559160200191906001019061179d565b5b5090506117c691906117ca565b5090565b5b808211156117e35760008160009055506001016117cb565b5090565b600080fd5b600080fd5b6000819050919050565b611804816117f1565b811461180f57600080fd5b50565b600081359050611821816117fb565b92915050565b60006020828403121561183d5761183c6117e7565b5b600061184b84828501611812565b91505092915050565b600081519050919050565b600082825260208201905092915050565b60005b8381101561188e578082015181840152602081019050611873565b8381111561189d576000848401525b50505050565b6000601f19601f8301169050919050565b60006118bf82611854565b6118c9818561185f565b93506118d9818560208601611870565b6118e2816118a3565b840191505092915050565b6118f6816117f1565b82525050565b6000604082019050818103600083015261191681856118b4565b905061192560208301846118ed565b9392505050565b600080fd5b600080fd5b600080fd5b60008083601f8401126119515761195061192c565b5b8235905067ffffffffffffffff81111561196e5761196d611931565b5b60208301915083600182028301111561198a57611989611936565b5b9250929050565b600080602083850312156119a8576119a76117e7565b5b600083013567ffffffffffffffff8111156119c6576119c56117ec565b5b6119d28582860161193b565b92509250509250929050565b600073ffffffffffffffffffffffffffffffffffffffff82169050919050565b6000611a09826119de565b9050919050565b611a19816119fe565b8114611a2457600080fd5b50565b600081359050611a3681611a10565b92915050565b600060208284031215611a5257611a516117e7565b5b6000611a6084828501611a27565b91505092915050565b611a72816119fe565b82525050565b6000602082019050611a8d6000830184611a69565b92915050565b7f4e487b7100000000000000000000000000000000000000000000000000000000600052602160045260246000fd5b60068110611ad357611ad2611a93565b5b50565b6000819050611ae482611ac2565b919050565b6000611af482611ad6565b9050919050565b611b0481611ae9565b82525050565b6000602082019050611b1f6000830184611afb565b92915050565b60008115159050919050565b611b3a81611b25565b82525050565b6000606082019050611b556000830186611b31565b611b626020830185611b31565b611b6f60408301846118ed565b949350505050565b6000602082019050611b8c60008301846118ed565b92915050565b7f4e487b7100000000000000000000000000000000000000000000000000000000600052602260045260246000fd5b60006002820490506001821680611bd957607f821691505b602082108103611bec57611beb611b92565b5b50919050565b7f4f776e61626c653a2063616c6c6572206973206e6f7420746865206f776e6572600082015250565b6000611c2860208361185f565b9150611c3382611bf2565b602082019050919050565b60006020820190508181036000830152611c5781611c1b565b9050919050565b7f53657373696f6e206427656e72656769737472656d656e742064657320766f7460008201527f616e747320696e61637469766500000000000000000000000000000000000000602082015250565b6000611cba602d8361185f565b9150611cc582611c5e565b604082019050919050565b60006020820190508181036000830152611ce981611cad565b9050919050565b6000604082019050611d056000830185611afb565b611d126020830184611afb565b9392505050565b7f4c612073657373696f6e20646520766f7465206e27657374207061732064c3a960008201527f6d617272c3a96500000000000000000000000000000000000000000000000000602082015250565b6000611d7560278361185f565b9150611d8082611d19565b604082019050919050565b60006020820190508181036000830152611da481611d68565b9050919050565b7f496e7465726469743a205574696c69736174657572206e6f6e20656e7265676960008201527f737472c3a9000000000000000000000000000000000000000000000000000000602082015250565b6000611e0760258361185f565b9150611e1282611dab565b604082019050919050565b60006020820190508181036000830152611e3681611dfa565b9050919050565b7f53657373696f6e206427656e72656769737472656d656e74206465732070726f60008201527f706f7374696f6e7320696e616374697665000000000000000000000000000000602082015250565b6000611e9960318361185f565b9150611ea482611e3d565b604082019050919050565b60006020820190508181036000830152611ec881611e8c565b9050919050565b7f50726f706f736974696f6e2064c3a96ac3a020656e72656769737472c3a96500600082015250565b6000611f05601f8361185f565b9150611f1082611ecf565b602082019050919050565b60006020820190508181036000830152611f3481611ef8565b9050919050565b7f4e487b7100000000000000000000000000000000000000000000000000000000600052601160045260246000fd5b6000611f75826117f1565b91507fffffffffffffffffffffffffffffffffffffffffffffffffffffffffffffffff8203611fa757611fa6611f3b565b5b600182019050919050565b7f456c6563746575722064c3a96ac3a020656e72656769737472c3a90000000000600082015250565b6000611fe8601b8361185f565b9150611ff382611fb2565b602082019050919050565b6000602082019050818103600083015261201781611fdb565b9050919050565b7f4c612073657373696f6e20646520766f7465206e27657374207061732074657260008201527f6d696ec3a9650000000000000000000000000000000000000000000000000000602082015250565b600061207a60268361185f565b91506120858261201e565b604082019050919050565b600060208201905081810360008301526120a98161206d565b9050919050565b7f4e487b7100000000000000000000000000000000000000000000000000000000600052603260045260246000fd5b7f4c652072c3a973756c746174206e276573742070617320656e636f726520646960008201527f73706f6e69626c65000000000000000000000000000000000000000000000000602082015250565b600061213b60288361185f565b9150612146826120df565b604082019050919050565b6000602082019050818103600083015261216a8161212e565b9050919050565b7f53657373696f6e206427656e72656769737472656d656e74206465732070726f60008201527f706f736974696f6e7320696e6163746976650000000000000000000000000000602082015250565b60006121cd60328361185f565b91506121d882612171565b604082019050919050565b600060208201905081810360008301526121fc816121c0565b9050919050565b7f4f776e61626c653a206e6577206f776e657220697320746865207a65726f206160008201527f6464726573730000000000000000000000000000000000000000000000000000602082015250565b600061225f60268361185f565b915061226a82612203565b604082019050919050565b6000602082019050818103600083015261228e81612252565b9050919050565b7f566f7573206176657a2064c3a96ac3a020766f74c3a920212121000000000000600082015250565b60006122cb601a8361185f565b91506122d682612295565b602082019050919050565b600060208201905081810360008301526122fa816122be565b9050919050565b7f43657474652070726f706f736974696f6e206e27657869737465207061732e2060008201527f46616974657320756e2061757472652063686f69780000000000000000000000602082015250565b600061235d60358361185f565b915061236882612301565b604082019050919050565b6000602082019050818103600083015261238c81612350565b9050919050565b60006040820190506123a86000830185611a69565b6123b560208301846118ed565b9392505050565b600081905092915050565b82818337600083830152505050565b60006123e283856123bc565b93506123ef8385846123c7565b82840190509392505050565b60006124088284866123d6565b91508190509392505050565b60008190508160005260206000209050919050565b6000815461243681611bc1565b61244081866123bc565b9450600182166000811461245b576001811461246c5761249f565b60ff1983168652818601935061249f565b61247585612414565b60005b8381101561249757815481890152600182019150602081019050612478565b838801955050505b50505092915050565b60006124b48284612429565b91508190509291505056fea264697066735822122082423f35365a77b1c4239f936cffea1301c9ecbed6aed49d891de70115082d3a64736f6c634300080d0033",
  "immutableReferences": {},
  "source": "//SPDX-License-Identifier: GPL-3.0\n\npragma solidity 0.8.13;\n\nimport \"@openzeppelin/contracts/access/Ownable.sol\";\n\ncontract Voting is Ownable {\n \n    struct Voter {\n        bool isRegistered;\n        bool hasVoted;\n        uint votedProposalId;\n    }\n\n    struct Proposal {\n        string description;\n        uint voteCount;\n    }\n\n    enum WorkflowStatus {\n        RegisteringVoters,\n        ProposalsRegistrationStarted,\n        ProposalsRegistrationEnded,\n        VotingSessionStarted,\n        VotingSessionEnded,\n        VotesTallied\n    }\n\n    uint public winningProposalId;\n\n    mapping(address => Voter) public voters;\n    WorkflowStatus public activeStatus;\n    mapping (uint => Proposal) public proposals;\n    uint proposalIndex;\n    uint[] proposalIds;\n\n    event VoterRegistered(address voterAddress); \n    event WorkflowStatusChange(WorkflowStatus previousStatus, WorkflowStatus newStatus);\n    event ProposalRegistered(uint proposalId);\n    event Voted (address voter, uint proposalId);\n\n    modifier onlyRegistered() {\n        require(voters[msg.sender].isRegistered, unicode\"Interdit: Utilisateur non enregistr\");\n        _;\n    }\n\n    modifier onlyProposalRegistrationActive() {\n        require(activeStatus == WorkflowStatus.ProposalsRegistrationStarted, unicode\"Session d'enregistrement des propostions inactive\");\n        _;\n    }\n\n    modifier onlyRegisteringVotersActive() {\n        require(activeStatus == WorkflowStatus.RegisteringVoters, unicode\"Session d'enregistrement des votants inactive\");\n        _;\n    }\n\n    modifier onlyVotingSessionStarted() {\n        require(activeStatus == WorkflowStatus.VotingSessionStarted, unicode\"La session de vote n'est pas dmarre\");\n        _;\n    }\n\n    // Enregistrement d'un votant par l'admin dans la liste blanche\n    function registerVoter(address _voterAddress) public onlyOwner onlyRegisteringVotersActive {        \n        // Vrifier si l'lecteur n'est pas dj enregistr\n        require(!voters[_voterAddress].isRegistered, unicode\"Electeur dj enregistr\");\n        voters[_voterAddress] = Voter(true, false, 0);\n        emit VoterRegistered(_voterAddress);\n    }\n\n    // Dmarrer la session d'enregistrement de la proposition\n    function startProposalRegistration() public onlyOwner onlyRegisteringVotersActive {       \n        activeStatus = WorkflowStatus.ProposalsRegistrationStarted;\n        emit WorkflowStatusChange(WorkflowStatus.RegisteringVoters, WorkflowStatus.ProposalsRegistrationStarted);\n    }\n\n    // Enregistrer les propositions des lecteurs\n    function registerProposal(string calldata _proposal) public onlyRegistered onlyProposalRegistrationActive {        \n        require(isNewProposal(_proposal), unicode\"Proposition dj enregistre\");\n        proposalIndex++;\n        proposals[proposalIndex] = Proposal({description: _proposal, voteCount:0});\n        proposalIds.push(proposalIndex);\n        emit ProposalRegistered(proposalIndex);             \n    }\n\n    // Arret de la session d'enregistrement des propositions\n    function stopProposalRegistration() public onlyOwner onlyProposalRegistrationActive {\n        activeStatus = WorkflowStatus.ProposalsRegistrationEnded;\n        emit WorkflowStatusChange(WorkflowStatus.ProposalsRegistrationStarted, WorkflowStatus.ProposalsRegistrationEnded);\n    }\n\n    // Demarrer la session de vote\n    function startVotingSession() public onlyOwner {\n        require(activeStatus == WorkflowStatus.ProposalsRegistrationEnded, unicode\"Session d'enregistrement des propositions inactive\");\n\n        activeStatus = WorkflowStatus.VotingSessionStarted;\n        emit WorkflowStatusChange(WorkflowStatus.ProposalsRegistrationEnded, WorkflowStatus.VotingSessionStarted);\n    }\n\n    // Les lecteurs inscrits votent pour leurs propositions prfres\n    function voting(uint _proposalId) public onlyRegistered onlyVotingSessionStarted {\n        require(!voters[msg.sender].hasVoted, unicode\"Vous avez dj vot !!!\");\n        // vrifier que la proposition existe\n        require(isProposalExist(_proposalId), unicode\"Cette proposition n'existe pas. Faites un autre choix\");\n\n        voters[msg.sender].votedProposalId = _proposalId;\n        voters[msg.sender].hasVoted = true;\n        proposals[_proposalId].voteCount++;\n        emit Voted (msg.sender, _proposalId);\n    }\n\n    // Fin de la session de vote\n    function stopVotingSession() public onlyOwner onlyVotingSessionStarted {\n        activeStatus = WorkflowStatus.VotingSessionEnded;\n        emit WorkflowStatusChange(WorkflowStatus.VotingSessionStarted, WorkflowStatus.VotingSessionEnded);\n    }\n\n    function computeResult() public onlyOwner {\n        require(activeStatus == WorkflowStatus.VotingSessionEnded, unicode\"La session de vote n'est pas termine\");\n         \n        for (uint i = 0; i < proposalIds.length; i++) {\n            winningProposalId = ( proposals[proposalIds[i]].voteCount > winningProposalId ) ? proposalIds[i] : winningProposalId;\n        }\n        activeStatus = WorkflowStatus.VotesTallied;\n        emit WorkflowStatusChange(WorkflowStatus.VotingSessionEnded, WorkflowStatus.VotesTallied);\n    }\n\n    function isProposalExist(uint _proposalId) private view returns (bool) {\n        return ( bytes(proposals[_proposalId].description) ).length > 0;\n    }\n\n    function isNewProposal(string calldata _proposalDescription) private view returns(bool) {\n\n        for(uint i=0; i < proposalIds.length; i++) {\n            if ( keccak256(abi.encodePacked( proposals[proposalIds[i]].description) ) == keccak256(abi.encodePacked(_proposalDescription)) ) {\n                return false;\n            }\n        }\n        return true;\n    }\n\n    function getWinner() public view returns(string memory description, uint voteCount) {\n        require(activeStatus == WorkflowStatus.VotesTallied, unicode\"Le rsultat n'est pas encore disponible\");\n        return (proposals[winningProposalId].description, proposals[winningProposalId].voteCount);\n    }\n\n}",
  "sourcePath": "/Users/Hoby/workspace/alyra-blockchain-projects/systeme-de-vote/contracts/Voting.sol",
  "compiler": {
    "name": "solc",
    "version": "0.8.13+commit.abaa5c0e.Emscripten.clang"
  },
  "schemaVersion": "3.4.6",
  "updatedAt": "2022-03-21T22:15:30.801Z",
  "networkType": "ethereum",
  "devdoc": {
    "kind": "dev",
    "methods": {
      "owner()": {
        "details": "Returns the address of the current owner."
      },
      "renounceOwnership()": {
        "details": "Leaves the contract without owner. It will not be possible to call `onlyOwner` functions anymore. Can only be called by the current owner. NOTE: Renouncing ownership will leave the contract without an owner, thereby removing any functionality that is only available to the owner."
      },
      "transferOwnership(address)": {
        "details": "Transfers ownership of the contract to a new account (`newOwner`). Can only be called by the current owner."
      }
    },
    "version": 1
  },
  "userdoc": {
    "kind": "user",
    "methods": {},
    "version": 1
  }
}